:020000040800F2
:1000000000000220E9170008391800083918000814
:1000100039180008391800083918000800000000D5
:100020000000000000000000000000003918000877
:10003000391800080000000039180008DD14000815
:10004000391800083918000839180008391800084C
:10005000391800083918000839180008391800083C
:10006000391800083918000839180008391800082C
:10007000391800083918000839180008391800081C
:10008000391800083918000839180008391800080C
:1000900039180008391800083918000839180008FC
:1000A00039180008391800083918000839180008EC
:1000B00039180008391800083918000839180008DC
:1000C00039180008391800083918000839180008CC
:1000D00039180008391800083918000839180008BC
:1000E00039180008391800083918000839180008AC
:1000F000391800083918000839180008391800089C
:10010000391800083918000839180008391800088B
:10011000391800083918000839180008391800087B
:10012000391800083918000839180008391800086B
:10013000391800080000000000000000391800080D
:10014000391800083918000839180008391800084B
:10015000391800083918000839180008391800083B
:10016000391800083918000839180008391800082B
:100170003918000839180008391800080000000074
:100180000000000039180008000000000000000016
:1001900039180008000000000000000039180008AD
:1001A00000000000000000000000000039180008F6
:1001B00039180008391800083918000839180008DB
:0401C00039180008E2
:1001D00010B5054C237833B9044B13B10448AFF381
:1001E00000800123237010BD70000020000000007B
:1001F000AC20000808B5034B1BB103490348AFF31B
:10020000008008BD0000000074000020AC20000841
:1002100053B94AB9002908BF00281CBF4FF0FF316D
:100220004FF0FF3000F072B9ADF1080C6DE904CE6B
:1002300000F006F8DDF804E0DDE9022304B07047C1
:100240002DE9F047089E04468846002B4BD18A4290
:10025000154667D9B2FA82F24AB1C2F1200701FA13
:1002600002F320FA07F7954047EA030894404FEA63
:10027000154E230CB8FBFEF71FFA85FC0EFB178802
:1002800043EA084307FB0CF1994209D9EB1807F13F
:10029000FF3080F01B81994240F21881023F2B44CD
:1002A0005B1AA4B2B3FBFEF00EFB103344EA034426
:1002B00000FB0CFCA44509D92C1900F1FF3380F098
:1002C0000781A44540F2048102382C4440EA0740EB
:1002D000A4EB0C0400271EB1D4400023C6E9004360
:1002E0003946BDE8F0878B4209D9002E00F0EB803B
:1002F0000027C6E9000138463946BDE8F087B3FA61
:1003000083F7002F47D18B4202D3824200F2FA805A
:10031000841A61EB030301209846002EE0D0C6E961
:100320000048DDE702B9FFDEB2FA82F2002A40F0AF
:100330008F80491B4FEA154E1FFA85F80127B1FB44
:10034000FEFC230C0EFB1C1143EA014308FB0CF1DD
:10035000994207D9EB180CF1FF3002D2994200F212
:10036000CD808446591AA3B2B1FBFEF00EFB1014E7
:1003700043EA044408FB00F8A04507D92C1900F112
:10038000FF3302D2A04500F2B6801846A4EB080461
:1003900040EA0C409FE7C7F1200CBB4022FA0CFE5C
:1003A0004EEA030E01FA07F420FA0CF521FA0CF3D9
:1003B0004FEA1E482543B3FBF8F92C0C08FB193310
:1003C0001FFA8EFA44EA034309FB0AF49C4202FA3C
:1003D00007F200FA07F10BD91EEB030309F1FF3016
:1003E00080F087809C4240F28480A9F10209734426
:1003F0001B1BADB2B3FBF8F008FB103345EA034416
:1004000000FB0AFAA24508D91EEB040400F1FF33F1
:100410006BD2A24569D90238744440EA0940A0FB76
:100420000289A4EB0A044C45C2464B4654D351D032
:10043000002E69D0B1EB0A0564EB030404FA0CFC4E
:10044000FD40FC404CEA0505C6E90054002747E79B
:10045000C2F1200320FA03F7954001FA02F021FAD5
:1004600003F34FEA154E3843010CB3FBFEF71FFAB6
:1004700085F80EFB173341EA034107FB08F38B4273
:1004800004FA02F407D9691807F1FF3C2FD28B4216
:100490002DD9023F2944CB1A81B2B3FBFEF00EFBEB
:1004A000103341EA034100FB08F38B4207D9691876
:1004B00000F1FF3C17D28B4215D902382944C91AE2
:1004C00040EA07473BE73746304609E70746E7E695
:1004D0001846FBE64145ABD2B8EB020A69EB0E02C7
:1004E00001381346A4E76046E9E7184695E76746F2
:1004F000D1E781467CE702382C4447E7ACF1020C97
:100500002B442FE7384608E73746E9E6704700BF37
:10051000034613F8012B002AFBD1181A0138704743
:1005200001F0FF01102A2BDB10F0070F08D010F8A4
:10053000013B013A8B422DD010F0070F42B3F6D1A8
:10054000F0B441EA012141EA014122F007047FF0C1
:1005500000070023F0E80256083C85EA010586EA18
:10056000010685FA47F5A3FA87F586FA47F6A5FA54
:1005700087F68EB9EED1F0BC01F0FF0102F0070260
:1005800032B110F8013B013A83EA010313B1F8D10B
:100590000020704701387047002D06BF35460338EC
:1005A000073815F0010F07D1013015F4807F02BF25
:1005B000013015F4C03F0130F0BC0138704700BF76
:1005C00010B504460E4B18784FF47A73B3FBF0F372
:1005D0000C4A1068B0FBF3F000F096F868B90F2CE5
:1005E00001D901200AE0002221464FF0FF3000F03F
:1005F00049F8034B5C60002000E0012010BD00BF03
:10060000000000200800002008B50B4B1A6842F4D7
:1006100000721A601A6842F480621A601A6842F422
:1006200080721A60032000F01BF80020FFF7C8FF5B
:1006300001F03EF8002008BD003C0240034A11686A
:10064000034B1B780B441360704700BF9C000020D5
:1006500000000020014B1868704700BF9C0000207C
:10066000074AD36823F4E0631B041B0C000200F468
:10067000E060184340F0BF6040F40030D060704745
:1006800000ED00E030B4174BDB68C3F30223C3F185
:100690000704042C28BF04241D1D062D18D9033B74
:1006A0004FF0FF3505FA04F421EA0401994005FAF8
:1006B00003F322EA0303194300280BDB0901C9B243
:1006C00000F1604000F5614080F8001330BC7047D5
:1006D0000023E5E700F00F000901C9B2024B1954ED
:1006E000F4E700BF00ED00E014ED00E0002807DBB8
:1006F00000F01F02400901239340024A42F82030D3
:10070000704700BF00E100E00138B0F1807F0AD2FD
:10071000064B5860064AF02182F8231000209860AA
:1007200007221A6070470120704700BF10E000E008
:1007300000ED00E0042805D0054A136823F0040307
:1007400013607047024A136843F004031360704754
:1007500010E000E0704708B5FFF7FCFF08BD00009F
:1007600000230F2B00F2D180F0B482B039E00622D2
:1007700000E00022B2403A430234644E46F824209E
:10078000634A1468EA4302EA04064F6817F4803F9C
:1007900001D045EA04065E4C2660646802EA04065D
:1007A0004F6817F4003F01D045EA0406584C6660D4
:1007B000A46802EA04064F6817F4801F01D045EAD6
:1007C0000406534CA660E46822404E6816F4001FED
:1007D00001D045EA04024E4CE26001330F2B00F2D7
:1007E000918001229A400C6804EA0205AA42F4D1E1
:1007F0004C68022C01D0122C10D1DE08083650F8BB
:1008000026C003F00704A7000F24BC402CEA040C08
:100810000C69BC4044EA0C0440F8264004685F00C0
:100820000326BE40F64306EA040C4C6804F00304B9
:10083000BC4044EA0C0404604C6804F1FF3CBCF189
:10084000010F03D9112C01D0122C10D1846806EAB3
:10085000040CCC68BC4044EA0C048460446824EA7C
:1008600002024C68C4F300149C4014434460C26804
:1008700016408A68BA403243C2604A6812F0805F0C
:10088000ABD000220192234A546C44F48044546457
:10089000526C02F480420192019A9C08A61C1B4AE9
:1008A00052F8267003F0030296000F22B24027EAA6
:1008B0000207194A90423FF45CAF02F58062904211
:1008C00016D002F58062904214D002F58062904208
:1008D00012D002F58062904210D002F58062904200
:1008E0000ED002F5806290423FF441AF072241E70B
:1008F00001223FE702223DE703223BE7042239E7DA
:10090000052237E702B0F0BC70477047003801405D
:10091000003C01400038024000000240002800F086
:100920009D8070B504464F4B1B6803F00F038B424C
:1009300009D2CBB24B4A1370136803F00F038B42FA
:1009400001D0012070BD236813F0020F17D013F0FF
:10095000040F04D0444A936843F4E053936023683F
:1009600013F0080F04D0404A936843F46043936047
:100970003D4A936823F0F003A068034393600D465B
:10098000236813F0010F32D06368012B21D09A1E27
:10099000012A25D9344A126812F0020F60D0324978
:1009A0008A6822F0030213438B60FFF753FE06466A
:1009B0002D4B9B6803F00C036268B3EB820F16D0DB
:1009C000FFF748FE801B41F288339842F0D903209C
:1009D000B8E7254A126812F4003FE0D10120B1E7E0
:1009E000214A126812F0007FD9D10120AAE71D4BDD
:1009F0001B6803F00F03AB4209D9EAB2194B1A7016
:100A00001B6803F00F03AB4201D001209AE7236873
:100A100013F0040F06D0144A936823F4E053E168FE
:100A20000B439360236813F0080F07D00E4A9368B6
:100A300023F46043216943EAC103936000F040F866
:100A4000094B9B68C3F30313084AD35CD840084B97
:100A500018600020FFF7B4FD002073E70120704705
:100A600001206FE7003C024000380240C42000082B
:100A700008000020014B1868704700BF08000020E4
:100A800008B5FFF7F7FF044B9B68C3F38223034AC3
:100A9000D35CD84008BD00BF00380240D420000815
:100AA00008B5FFF7E7FF044B9B68C3F34233034AE3
:100AB000D35CD84008BD00BF00380240D4200008F5
:100AC0002DE9F04B5C4B9B6803F00C03082B07D01F
:100AD0000C2B5BD0042B00F0AD805848BDE8F08BA8
:100AE000554B5A6802F03F025B6813F4800F2AD01E
:100AF000514B5B68C3F388131E4600275C01002539
:100B0000E41A65EB0705A90141EA9461A001001B05
:100B100061EB0501CB0043EA5073C400A01943EB1D
:100B200007014B0243EAD0534402204619460023F2
:100B3000FFF76EFB404B5B68C3F3014301335B007F
:100B4000B0FBF3F0CAE73C4B5B68C3F388131E4667
:100B500000275C010025E41A65EB0705A90141EABD
:100B60009461A001001B61EB0501CB0043EA5073C7
:100B7000C400A01943EB07018B0243EA905384029F
:100B8000204619460023FFF743FBD3E72A4B5A6858
:100B900002F03F025B6813F4800F28D0264B5B689D
:100BA000C3F388131E4600275C010025E41A65EB99
:100BB0000705A90141EA9461A001001B61EB050151
:100BC000CB0043EA5073C400A01943EB07014B026A
:100BD00043EAD0534402204619460023FFF718FB8E
:100BE000154B5B68C3F30273B0FBF3F076E7124B6F
:100BF0005B68C3F388131E4600275C010025E41AD6
:100C000065EB0705A90141EA9461A001001B61EBB6
:100C10000501CB0043EA5073C400A01943EB070160
:100C20008B0243EA90538402204619460023FFF7C3
:100C3000EFFAD5E7024851E7003802400024F400FB
:100C400000127A0070B582B00446036813F0010FF9
:100C500041D0A64B9B6803F00C03042B32D0A34B6E
:100C60009B6803F00C03082B27D0A04B9B6803F074
:100C70000C030C2B59D06368B3F5803F5BD0B3F500
:100C8000A02F5ED0994B1A6822F480321A601A683D
:100C900022F480221A606368002B5CD0FFF7DAFC34
:100CA0000546924B1B6813F4003F14D1FFF7D2FCAA
:100CB000401B6428F5D903209DE18C4B5B6813F43D
:100CC000800FD2D0894B1B6813F4003F03D06368B8
:100CD000002B00F08D81236813F0020F67D0834B47
:100CE0009B6813F00C0F4AD0804B9B6803F00C03F9
:100CF000082B3FD07D4B9B6803F00C030C2B48D096
:100D0000E368002B74D07A4B01221A60FFF7A2FC33
:100D10000546764B1B6813F0020F60D1FFF79AFC73
:100D2000401B0228F5D9032065E1704B5B6813F482
:100D3000800FA0D0C6E76D4A136843F48033136078
:100D4000A9E76A4B1A6842F480221A601A6842F4D2
:100D500080321A609FE7FFF77DFC0546634B1B68F6
:100D600013F4003FB7D0FFF775FC401B6428F5D99A
:100D7000032040E15D4B5B6813F4800FBAD15B4BFD
:100D80001B6813F0020F0AD0E368012B07D0012083
:100D900031E1564B5B6813F4800FB1D1EFE7534A52
:100DA000136823F0F803216943EAC1031360236841
:100DB00013F0080F40D0636963B34E4B01221A60F1
:100DC000FFF748FC0546494B5B6F13F0020F33D128
:100DD000FFF740FC401B0228F5D903200BE1434AF2
:100DE000136823F0F803216943EAC1031360DEE7C7
:100DF0003F4B00221A60FFF72DFC05463B4B1B685A
:100E000013F0020FD3D0FFF725FC401B0228F5D9C1
:100E10000320F0E0374B00221A60FFF71BFC054669
:100E2000324B5B6F13F0020F06D0FFF713FC401B31
:100E30000228F5D90320DEE0236813F0040F79D0EF
:100E40002A4B1B6C13F0805F33D100230193274B97
:100E50001A6C42F080521A641B6C03F080530193A9
:100E6000019B0125244B1B6813F4807F23D0A368CA
:100E7000012B34D0052B41D01C4B1A6F22F00102FC
:100E80001A671A6F22F004021A67A368002B3FD07A
:100E9000FFF7E0FB0646154B1B6F13F0020F48D11E
:100EA000FFF7D8FB801B41F288339842F3D9032027
:100EB000A1E00025D6E7104A136843F4807313605D
:100EC000FFF7C8FB06460C4B1B6813F4807FCED19E
:100ED000FFF7C0FB801B0228F5D903208BE0034AF3
:100EE000136F43F001031367CFE700BF00380240E0
:100EF00000004742800E474200700040404B1A6F8E
:100F000042F004021A671A6F42F001021A67BCE746
:100F1000FFF7A0FB06463A4B1B6F13F0020F08D0F9
:100F2000FFF798FB801B41F288339842F3D90320E6
:100F300061E0E5B9A369002B5CD0314A926802F008
:100F40000C02082A59D0022B17D02E4B00221A600F
:100F5000FFF780FB04462A4B1B6813F0007F45D047
:100F6000FFF778FB001B0228F5D9032043E0244A51
:100F7000136C23F080531364DCE7224B00221A60C9
:100F8000FFF768FB05461E4B1B6813F0007F06D079
:100F9000FFF760FB401B0228F5D903202BE0E36933
:100FA000226A1343626A43EA8213A26A5208013A30
:100FB00043EA0243E26A43EA0263226B43EA0273B2
:100FC0000F4A53600F4B01221A60FFF743FB0446A0
:100FD0000B4B1B6813F0007F06D1FFF73BFB001B98
:100FE0000228F5D9032006E0002004E0002002E0FA
:100FF000012000E0002002B070BD0120FBE700BF2F
:1010000000380240600047422DE9F8430446026878
:10101000136923F44053C1680B4313618368026969
:10102000134342691343C2691A430168CB6823F42E
:10103000164323F00C031343CB600268536923F477
:10104000407381690B435361C369B3F5004F60D0AE
:101050000368B84A934200F0148102F5806293421B
:1010600000F00F81FFF70CFD00EB800000EB80002B
:101070006568AD00B0FBF5F5AF4FA7FB05356D0911
:101080002E01FFF7FDFC00EB800000EB800065689F
:10109000AD00B0FBF5F9FFF7F3FC00EB800000EBCF
:1010A00080006568AD00B0FBF5F5A7FB05356D095F
:1010B0004FF0640808FB15952D013235A7FB053567
:1010C0006D0905F0F0053544FFF7DAFC00EB800010
:1010D00000EB80006668B600B0FBF6F6FFF7D0FCC8
:1010E00000EB800000EB800063689B00B0FBF3F036
:1010F000A7FB0030400908FB10684FEA081808F108
:101100003208A7FB0837C7F3431723682F449F60B3
:101110000DE10368874A93425BD002F580629342F7
:1011200057D0FFF7ADFC00EB800000EB8000656856
:101130006D00B0FBF5F5804FA7FB05356D092E015D
:10114000FFF79EFC00EB800000EB800065686D00FF
:10115000B0FBF5F9FFF794FC00EB800000EB80009A
:1011600065686D00B0FBF5F5A7FB05356D094FF01F
:10117000640808FB1595ED003235A7FB05356D09B0
:101180006D0005F4F8753544FFF77AFC00EB80003C
:1011900000EB800066687600B0FBF6F6FFF770FCA7
:1011A00000EB800000EB800063685B00B0FBF3F3B2
:1011B000A7FB03235B0908FB13684FEAC80808F183
:1011C0003208A7FB0837C7F3421723682F449F60F4
:1011D000ADE0FFF765FC00EB800000EB8000656888
:1011E0006D00B0FBF5F5544FA7FB05356D092E01D9
:1011F000FFF756FC00EB800000EB800065686D0097
:10120000B0FBF5F9FFF74CFC00EB800000EB800031
:1012100065686D00B0FBF5F5A7FB05356D094FF06E
:10122000640808FB1595ED003235A7FB05356D09FF
:101230006D0005F4F8753544FFF732FC00EB8000D3
:1012400000EB800066687600B0FBF6F6FFF728FC3E
:1012500000EB800000EB800063685B00B0FBF3F301
:10126000A7FB03235B0908FB13684FEAC80808F1D2
:101270003208A7FB0837C7F3421723682F449F6043
:1012800055E0FFF70DFC00EB800000EB8000656887
:10129000AD00B0FBF5F5284FA7FB05356D092E0114
:1012A000FFF7FEFB00EB800000EB80006568AD00FF
:1012B000B0FBF5F9FFF7F4FB00EB800000EB8000DA
:1012C0006568AD00B0FBF5F5A7FB05356D094FF07E
:1012D000640808FB15952D013235A7FB05356D090E
:1012E00005F0F0053544FFF7DBFB00EB800000EB79
:1012F00080006668B600B0FBF6F6FFF7D1FB00EBA6
:10130000800000EB800063689B00B0FBF3F0A7FB5C
:101310000030400908FB10684FEA081808F132084D
:10132000A7FB0837C7F3431723682F449F60BDE826
:10133000F88300BF001001401F85EB512DE9F041FB
:1013400005460F4616469846069C2B681B6837EAEA
:1013500003030CBF01230023B3421DD1B4F1FF3FAF
:10136000F3D02CB1FFF776F9A0EB0800A042ECD93E
:101370002A68D36823F4D073D3602A68536923F0B2
:1013800001035361202385F8393085F83A30002372
:1013900085F83830032000E00020BDE8F08158B324
:1013A00010B5044690F839300BB3242384F8393053
:1013B0002268D36823F40053D3602046FFF724FE4D
:1013C0002268136923F4904313612268536923F060
:1013D0002A0353612268D36843F40053D36000208A
:1013E000E063202384F8393084F83A3010BD80F867
:1013F000383000F07BF9D8E7012070472DE9F04143
:1014000082B01E4690F83930DBB2202B55D104460D
:101410000D469046002955D0002A55D090F8383016
:10142000012B53D0012380F838300023C3632123DC
:1014300080F83930FFF70EF90746A4F82480A4F8A5
:10144000268010E000963B46002280212046FFF7D0
:1014500075FF00283CD12B882268C3F30803536032
:101460002369C3B90235E38C9BB2B3B1E38C013B72
:101470009BB2E384A368B3F5805FE3D000963B465C
:10148000002280212046FFF759FF18BB2A782368E5
:101490005A600135E7E70135E5E700963B46002253
:1014A00040212046FFF74AFF0346A8B9202284F8CE
:1014B0003920002284F8382000E00223184602B0C8
:1014C000BDE8F0810123F9E70123F7E70223F5E7FF
:1014D0000323F3E70323F1E70323EFE708B5FFF75F
:1014E000ADF8FFF738F908BD10B592B002230593A7
:1014F00001220892102209920B9300230C93542886
:1015000028D0782838D0322822D10D9264230E9327
:1015100002230F93109311930F2200920193002343
:1015200002934FF4805303930493012405A8FFF71B
:1015300089FB21466846FFF7F1F9FFF79BFA194B43
:10154000A3FB00308009FFF7DFF80420FFF7F2F873
:1015500012B010BD10230D93A8230E9302240F94F4
:10156000109411940F2300930194002302934FF4DD
:10157000805303930493D9E710230D93F0230E9324
:1015800002230F93109311930F22009201930023D3
:1015900002934FF4A05303934FF480530493032416
:1015A000C4E700BFD34D621008B50848084B03607C
:1015B0004FF4E133436000238360C36003618361C0
:1015C0000C234361FFF7EBFE08BD00BFA000002025
:1015D0000044004000B59BB0FFF716F85420FFF719
:1015E00083FFFFF7E1FF64252A46002101A800F0F0
:1015F0004FF9FFF765FA0246284901A800F050F9B3
:1016000001A8FEF785FF264C4FF0FF3382B201A9F7
:101610002046FFF7F3FE2A46002101A800F038F922
:10162000FFF728FA02461F4901A800F039F901A87E
:10163000FEF76EFF4FF0FF3382B201A92046FFF79D
:10164000DDFE2A46002101A800F022F9FFF718FA72
:101650000246154901A800F023F901A8FEF758FF3A
:101660004FF0FF3382B201A92046FFF7C7FE2A469A
:10167000002101A800F00CF9FFF712FA02460B490D
:1016800001A800F00DF901A8FEF742FF4FF0FF336B
:1016900082B201A92046FFF7B1FEFEE7DC20000878
:1016A000A0000020F02000080421000818210008F4
:1016B00008B50320FEF7D4FF0B4A536A43F4E02336
:1016C0005362002211466FF00B00FEF7DBFF002291
:1016D00011466FF00A00FEF7D5FF002211466FF0A9
:1016E0000900FEF7CFFF08BD00ED00E030B589B07E
:1016F00000240194184B1A6C42F400321A641A6CDC
:1017000002F400320192019A02941A6B42F0010233
:101710001A631B6B03F001030293029B04230393E0
:1017200002230493012305930694072307930B4D8B
:1017300003A92846FFF714F80823039303A92846B2
:10174000FFF70EF82620FEF7D1FF22460F212620B4
:10175000FEF798FF09B030BD00380240000002409B
:1017600008B503460B4A126842B10A4A106803449E
:101770006A46934206D8074A136008BD054A0649DF
:101780001160F2E700F05AF80C2303604FF0FF30CD
:10179000F3E700BF8C000020E80000200F49D1F8DB
:1017A000883043F47003C1F888300D4B1A6842F05A
:1017B00001021A60002098601A6822F0847222F4F4
:1017C00080321A60074A5A601A6822F480221A602E
:1017D000D8604FF000638B60704700BF00ED00E001
:1017E0000038024010300024DFF834D0002103E03C
:1017F0000C4B5B58435004310B480C4B42189A4237
:10180000F6D30B4A02E0002342F8043B094B9A420C
:10181000F9D3FFF7C3FF00F017F8FFF7DBFE7047BF
:10182000000002207021000800000020700000204D
:1018300070000020E4000020FEE70000014B186863
:10184000704700BF0C00002070B50D4E0D4CA41B5E
:10185000A4100025A54209D10B4E0C4C00F026FC2B
:10186000A41BA4100025A54205D170BD56F8253053
:1018700098470135EEE756F8253098470135F2E7ED
:101880006821000868210008682100086C21000810
:1018900002440346934200D1704703F8011BF9E765
:1018A0000EB400B59CB01DAB029006906FF00041E5
:1018B000094807910491094953F8042B05910068E0
:1018C000019302A900F066F8029B00221A701CB076
:1018D0005DF804EB03B070470C0000200802FFFF26
:1018E0002DE9F0478E689E4282460C469046994606
:1018F00037D88A8912F4906F31D0256809696F1A38
:101900006569022305EB450595FBF3F509F1010334
:101910003B449D4238BF1D46530530D5294600F053
:101920002BFB064650B90C23CAF80030A38943F0BC
:101930004003A3814FF0FF30BDE8F0873A462169AC
:1019400000F0A8FAA38923F4906343F08003A381F5
:10195000266165613E44ED1B2660A5604E464E45FE
:1019600000D94E4632464146206800F09EFAA368F0
:101970009B1BA36023681E4426600020DCE72A46E8
:1019800000F054FB06460028E2D12169504600F0E1
:10199000A5FAC8E72DE9F04F1D468B891F069DB0BB
:1019A00080460C4616460FD50B696BB9402100F0F6
:1019B000E3FA2060206128B90C23C8F800304FF00A
:1019C000FF30C8E0402363610023099320238DF892
:1019D000293030238DF82A3003954FF0010B37461C
:1019E0003D4615F8013B0BB1252B3ED1B7EB060A5E
:1019F0000BD05346324621464046FFF771FF013077
:101A000000F0A480099B534409933B78002B00F01D
:101A10009D8000234FF0FF32CDE905230493079307
:101A20008DF853301A932F46052217F8011B5048A2
:101A3000FEF776FD049BD0B9D90644BF20228DF86D
:101A400053201A0744BF2B228DF853202A782A2AC4
:101A500015D0079A2F4600200A25394611F8013B78
:101A6000303B092B4DD9B8B10FE02F46B8E7404ABB
:101A7000801A0BFA00F0184304903D46D3E7039A0E
:101A8000111D12680391002A01DB079204E0524203
:101A900043F00203079204933B782E2B0CD17B7802
:101AA0002A2B33D1039B1A1D1B680392002BB8BF4E
:101AB0004FF0FF33023705932E4D39780322284625
:101AC000FEF72EFD38B14023401B03FA00F0049BC3
:101AD000034301370493397827488DF828100622EC
:101AE0007E1CFEF71DFD002838D0244B13BB039B42
:101AF000073323F0070308330393099B4B440993EF
:101B00006DE705FB023201200F46A6E700230137EF
:101B1000059319460A25384610F8012B303A092A50
:101B200003D9002BC8D00591C6E705FB012101238D
:101B30000746F0E703AB00932246114B04A9404649
:101B4000AFF30080B0F1FF3F8146D6D1A3895B0699
:101B50003FF535AF09981DB0BDE8F08F03AB00939A
:101B60002246074B04A9404600F082F8EAE700BF8E
:101B70002C21000832210008362100080000000056
:101B8000E11800082DE9F04791461F468A680B6965
:101B9000DDF820809342B8BF1346C9F8003091F8B1
:101BA000432006460C4612B10133C9F800302368C1
:101BB000990642BFD9F800300233C9F800302568D1
:101BC00015F0060507D104F1190AE368D9F80020D9
:101BD0009B1AAB4228DC94F843302268003318BFCC
:101BE000012392062DD404F1430239463046C04702
:101BF000013020D02368E568D9F8002003F00603FF
:101C0000042B08BFAD1AA36822690CBF25EAE5754D
:101C100000259342C4BF9B1AED184FF000091A34F7
:101C20004D451AD1002008E001235246394630467E
:101C3000C047013003D14FF0FF30BDE8F0870135D8
:101C4000C3E7E1185A1C302081F84300224494F87D
:101C5000451082F843100233C5E701232246394676
:101C60003046C0470130E6D009F10109D8E700004D
:101C70002DE9F04301F1430C0C46097E85B06E2935
:101C80001746064698460C9A00F0B38022D863297E
:101C900036D00AD8002900F0B980582900F0838096
:101CA00004F1420584F8421032E0642901D0692928
:101CB000F6D120681368050603F104012AD51B68D4
:101CC0001160002B03DA2D225B4284F843206F4819
:101CD0000A2239E0732900F09D8008D86F2920D0AE
:101CE0007029DDD1236843F02003236003E07529C8
:101CF00017D07829D4D1782384F84530644855E04A
:101D00001368191D1B68116004F1420584F8423004
:101D100001238CE01B68116010F0400F18BF1BB24C
:101D2000CFE713682568181D1060280601D51B68C9
:101D300002E06806FBD51B8854486F2914BF0A22AD
:101D40000822002184F843106568A560002DC0F2C8
:101D50009580216821F004012160002B3DD1002DE8
:101D600040F08E806546082A0BD12368DB0708D532
:101D7000236962689A42DEBF302305F8013C05F111
:101D8000FF35ACEB05032361CDF800803B4603AA89
:101D900021463046FFF7F6FE01304DD14FF0FF30BF
:101DA00005B0BDE8F083394884F845101368216810
:101DB0001D1D1B6815600A060BD5CA0744BF41F0FC
:101DC000200121601BB9226822F02002226010222B
:101DD000B7E74D0648BF9BB2EFE76546B3FBF2F1AC
:101DE00002FB1133C35C05F8013D0B460029F5D118
:101DF000B9E7136825686169181D106028061B681B
:101E000001D5196002E06A06FBD519800023236121
:101E10006546B9E71368191D11601D6862680021E5
:101E20002846FEF77DFB08B1401B606063682361B4
:101E3000002384F84330A7E723692A463946304611
:101E4000C0470130AAD023689B0713D4E068039BE6
:101E50009842B8BF1846A3E701234A4639463046A0
:101E6000C04701309AD00135E368039A9B1AAB4210
:101E7000F2DCEBE7002504F11909F5E7002BACD102
:101E8000037884F8423004F142056CE73D210008F4
:101E90004E21000810B5431E0A44914200D110BDE6
:101EA00011F8014B03F8014FF7E7884210B501EB39
:101EB000020307D8421E99420AD011F8014B02F8DA
:101EC000014FF8E78342F5D98118D21AD34200D1E5
:101ED00010BD13F8014D01F8014DF7E738B505467F
:101EE000002945D051F8043C0C1F002BB8BFE41862
:101EF00000F0D2F81F4A1368104633B963601460CB
:101F00002846BDE8384000F0C8B8A3420CD9216883
:101F10006218934204BF1A685B68636004BF52187A
:101F200022600460ECE713465A680AB1A242FAD96B
:101F300019685818A0420BD12068014458188242F1
:101F40001960DDD1106852685A6001441960D7E702
:101F500002D90C232B60D3E7206821188A4204BFE2
:101F600011685268626004BF091821605C60C7E7AD
:101F700038BD00BF9400002070B5CD1C25F00305CE
:101F800008350C2D38BF0C25002D064601DBA94273
:101F900003D90C233360002070BD00F07DF8214A86
:101FA0001468214691B9204C23681BB9304600F0D3
:101FB00063F820602946304600F05EF8431C24D1C7
:101FC0000C233360304600F068F8E4E70B685B1BD5
:101FD00018D40B2B0FD90B60CD50CC18304600F025
:101FE0005CF804F10B00231D20F00700C31AD3D0C6
:101FF0005A42E250D0E78C424B6816BF63601360D0
:102000000C46EBE70C464968CCE7C41C24F00304FB
:10201000A04205D0211A304600F02EF80130CFD072
:102020002560DBE79400002098000020F8B5074603
:1020300014460E4621B91146BDE8F840FFF79CBF93
:1020400022B9FFF74BFF25462846F8BD00F026F8D9
:10205000A0420FD221463846FFF78EFF05460028E2
:10206000F2D031462246FFF715FF31463846FFF7DA
:1020700035FFE9E73546E7E738B5064C0023054666
:1020800008462360FFF76CFB431C02D1236803B1B1
:102090002B6038BDE00000207047704751F8043CC9
:1020A000181F002BBCBF0B58C0187047F8B500BFF5
:1020B000F8BC08BC9E467047F8B500BFF8BC08BC29
:0420C0009E46704781
:1020C40000000000000000000102030406070809E4
:1020D4000000000001020304535953434C4B203ABF
:1020E40020256C64487A0D0A0000000048434C4BDC
:1020F4002020203A20256C64487A0D0A0000000054
:1021040050434C4B3120203A20256C64487A0D0A08
:102114000000000050434C4B3220203A20256C64D0
:10212400487A0D0A00000000232D302B2000686C33
:102134004C006566674546470030313233343536E6
:10214400373839414243444546003031323334351F
:0C2154003637383961626364656600004C
:08216000E0E0FF7F0100000038
:04216800F501000875
:04216C00D101000895
:1021700001000000100000000024F4001000002006
:10218000000000000000000000000000000000004F
:10219000000000000000000000000000000000003F
:1021A000000000000000000000000000000000002F
:1021B000000000000000000000000000000000001F
:1021C000000000000000000000000000000000000F
:1021D00000000000000000000000000000000000FF
:04000005080017E9EF
:00000001FF
