:020000040800F2
:1000000000000220350F0008850F0008850F00084A
:10001000850F0008850F0008850F0008000000000C
:10002000000000000000000000000000850F000834
:10003000850F000800000000850F0008610D000812
:10004000850F0008850F0008850F0008850F000840
:10005000850F0008850F0008850F0008850F000830
:10006000850F0008850F0008850F0008850F000820
:10007000850F0008850F0008850F0008850F000810
:10008000850F0008850F0008850F0008850F000800
:10009000850F0008850F0008850F0008850F0008F0
:1000A000850F0008850F0008850F0008850F0008E0
:1000B000850F0008850F0008850F0008850F0008D0
:1000C000850F0008850F0008850F0008850F0008C0
:1000D000850F0008850F00086D0D0008850F0008CA
:1000E000850F0008850F0008850F0008850F0008A0
:1000F000850F0008850F0008850F0008850F000890
:10010000850F0008850F0008850F0008850F00087F
:10011000850F0008850F0008850F0008850F00086F
:10012000850F0008850F0008850F0008850F00085F
:10013000850F00080000000000000000850F000887
:10014000850F0008850F0008850F0008850F00083F
:10015000850F0008850F0008850F0008850F00082F
:10016000850F0008850F0008850F0008850F00081F
:10017000850F0008850F0008850F000800000000AB
:1001800000000000850F00080000000000000000D3
:10019000850F00080000000000000000850F000827
:1001A000000000000000000000000000850F0008B3
:1001B000850F0008850F0008850F0008850F0008CF
:0401C000850F00089F
:1001C40010B5054C237833B9044B13B10448AFF38D
:1001D40000800123237010BD1000002000000000E7
:1001E400D00F000808B5034B1BB103490348AFF314
:1001F400008008BD0000000014000020D00F00089B
:10020400034613F8012B002AFBD1181A0138704752
:1002140010B504460E4B18784FF47A73B3FBF0F321
:100224000C4A1068B0FBF3F000F096F868B90F2C94
:1002340001D901200AE0002221464FF0FF3000F0EE
:1002440049F8034B5C60002000E0012010BD00BFB2
:10025400000000200C00002008B50B4B1A6842F483
:1002640000721A601A6842F480621A601A6842F4D2
:1002740080721A60032000F01BF80020FFF7C8FF0B
:1002840000F0D8FD002008BD003C0240034A11687C
:10029400034B1B780B441360704700BF30000020F1
:1002A40000000020014B1868704700BF3000002098
:1002B400074AD36823F4E0631B041B0C000200F418
:1002C400E060184340F0BF6040F40030D0607047F5
:1002D40000ED00E030B4174BDB68C3F30223C3F135
:1002E4000704042C28BF04241D1D062D18D9033B24
:1002F4004FF0FF3505FA04F421EA0401994005FAA8
:1003040003F322EA0303194300280BDB0901C9B2F2
:1003140000F1604000F5614080F8001330BC704784
:100324000023E5E700F00F000901C9B2024B19549C
:10033400F4E700BF00ED00E014ED00E0002807DB67
:1003440000F01F02400901239340024A42F8203082
:10035400704700BF00E100E00138B0F1807F0AD2AD
:10036400064B5860064AF02182F82310002098605A
:1003740007221A6070470120704700BF10E000E0B8
:1003840000ED00E0704708B5FFF7FCFF08BD90F8EA
:100394003530DBB2022B03D0802343650120704744
:1003A400052380F835300268136823F001031360D5
:1003B4000020704700230F2B00F2D180F0B482B0EC
:1003C40039E0062200E00022B2403A430234644E8F
:1003D40046F82420634A1468EA4302EA04064F6894
:1003E40017F4803F01D045EA04065E4C2660646839
:1003F40002EA04064F6817F4003F01D045EA0406F8
:10040400584C6660A46802EA04064F6817F4801F1B
:1004140001D045EA0406534CA660E46822404E68C5
:1004240016F4001F01D045EA04024E4CE260013389
:100434000F2B00F2918001229A400C6804EA020515
:10044400AA42F4D14C68022C01D0122C10D1DE083F
:10045400083650F826C003F00704A7000F24BC4058
:100464002CEA040C0C69BC4044EA0C0440F8264015
:1004740004685F000326BE40F64306EA040C4C6899
:1004840004F00304BC4044EA0C0404604C6804F126
:10049400FF3CBCF1010F03D9112C01D0122C10D157
:1004A400846806EA040CCC68BC4044EA0C0484600A
:1004B400446824EA02024C68C4F300149C401443C8
:1004C4004460C26816408A68BA403243C2604A68CF
:1004D40012F0805FABD000220192234A546C44F4A2
:1004E40080445464526C02F480420192019A9C0844
:1004F400A61C1B4A52F8267003F0030296000F2232
:10050400B24027EA0207194A90423FF45CAF02F571
:100514008062904216D002F58062904214D002F5B7
:100524008062904212D002F58062904210D002F5AF
:10053400806290420ED002F5806290423FF441AF57
:10054400072241E701223FE702223DE703223BE77E
:10055400042239E7052237E702B0F0BC7047704740
:1005640000380140003C01400038024000000240D5
:10057400014B1868704700BF0C00002008B5FFF756
:10058400F7FF044B9B68C3F38223034AD35CD84030
:1005940008BD00BF00380240F80F000808B5FFF797
:1005A400E7FF044B9B68C3F34233034AD35CD84050
:1005B40008BD00BF00380240F80F00080268D36885
:1005C40023F49073D3600268536923F001035361E9
:1005D400202380F83A30704790F83930DBB2212B71
:1005E4002AD18368B3F5805F16D0036A5A1C02626D
:1005F4001A7803685A60C38C013B9BB2C384EBB97D
:100604000268D36823F08003D3600268D36843F0A0
:100614004003D36000207047036A1B880268C3F359
:100624000803536003691BB9036A02330362E2E7F8
:10063400036A01330362DEE702207047002070473B
:100644002DE9F84304460268136923F44053C16852
:100654000B43136183680269134342691343C269FC
:100664001A430168CB6823F4164323F00C031343A5
:10067400CB600268536923F4407381690B4353616F
:10068400C369B3F5004F60D00368B84A934200F0E1
:10069400148102F58062934200F00F81FFF76EFF30
:1006A40000EB800000EB80006568AD00B0FBF5F561
:1006B400AF4FA7FB05356D092E01FFF75FFF00EB78
:1006C400800000EB80006568AD00B0FBF5F9FFF732
:1006D40055FF00EB800000EB80006568AD00B0FBC7
:1006E400F5F5A7FB05356D094FF0640808FB159572
:1006F4002D013235A7FB05356D0905F0F0053544AC
:10070400FFF73CFF00EB800000EB80006668B6005A
:10071400B0FBF6F6FFF732FF00EB800000EB800041
:1007240063689B00B0FBF3F0A7FB0030400908FBB3
:1007340010684FEA081808F13208A7FB0837C7F316
:10074400431723682F449F600DE10368874A93424F
:100754005BD002F58062934257D0FFF70FFF00EBA6
:10076400800000EB800065686D00B0FBF5F5804FFC
:10077400A7FB05356D092E01FFF700FF00EB800094
:1007840000EB800065686D00B0FBF5F9FFF7F6FE3D
:1007940000EB800000EB800065686D00B0FBF5F5B0
:1007A400A7FB05356D094FF0640808FB1595ED00AE
:1007B4003235A7FB05356D096D0005F4F875354430
:1007C400FFF7DCFE00EB800000EB8000666876003B
:1007D400B0FBF6F6FFF7D2FE00EB800000EB8000E2
:1007E40063685B00B0FBF3F3A7FB03235B0908FB1F
:1007F40013684FEAC80808F13208A7FB0837C7F3A3
:10080400421723682F449F60ADE0FFF7C7FE00EB5B
:10081400800000EB800065686D00B0FBF5F5544F77
:10082400A7FB05356D092E01FFF7B8FE00EB80002C
:1008340000EB800065686D00B0FBF5F9FFF7AEFED4
:1008440000EB800000EB800065686D00B0FBF5F5FF
:10085400A7FB05356D094FF0640808FB1595ED00FD
:100864003235A7FB05356D096D0005F4F87535447F
:10087400FFF794FE00EB800000EB800066687600D2
:10088400B0FBF6F6FFF78AFE00EB800000EB800079
:1008940063685B00B0FBF3F3A7FB03235B0908FB6E
:1008A40013684FEAC80808F13208A7FB0837C7F3F2
:1008B400421723682F449F6055E0FFF76FFE00EB5B
:1008C400800000EB80006568AD00B0FBF5F5284FB3
:1008D400A7FB05356D092E01FFF760FE00EB8000D4
:1008E40000EB80006568AD00B0FBF5F9FFF756FE3C
:1008F40000EB800000EB80006568AD00B0FBF5F50F
:10090400A7FB05356D094FF0640808FB15952D010B
:100914003235A7FB05356D0905F0F0053544FFF7C1
:100924003DFE00EB800000EB80006668B600B0FB83
:10093400F6F6FFF733FE00EB800000EB80006368FF
:100944009B00B0FBF3F0A7FB0030400908FB1068E4
:100954004FEA081808F13208A7FB0837C7F3431712
:1009640023682F449F60BDE8F88300BF0010014056
:100974001F85EB512DE9F04105460F461646984672
:10098400069C2B681B6837EA03030CBF0123002372
:10099400B3421DD1B4F1FF3FF3D02CB1FFF782FC79
:1009A400A0EB0800A042ECD92A68D36823F4D073E2
:1009B400D3602A68536923F001035361202385F827
:1009C400393085F83A30002385F83830032000E0C8
:1009D4000020BDE8F08158B310B5044690F83930D2
:1009E4000BB3242384F839302268D36823F40053EA
:1009F400D3602046FFF724FE2268136923F4904352
:100A040013612268536923F02A0353612268D3686F
:100A140043F40053D3600020E063202384F839308A
:100A240084F83A3010BD80F8383000F021FAD8E765
:100A3400012070472DE9F04182B01E4690F839300C
:100A4400DBB2202B55D104460D469046002955D0E3
:100A5400002A55D090F83830012B53D0012380F868
:100A640038300023C363212380F83930FFF71AFCA0
:100A74000746A4F82480A4F8268010E000963B469C
:100A8400002280212046FFF775FF00283CD12B88E7
:100A94002268C3F3080353602369C3B90235E38CA6
:100AA4009BB2B3B1E38C013B9BB2E384A368B3F57F
:100AB400805FE3D000963B46002280212046FFF76A
:100AC40059FF18BB2A7823685A600135E7E70135D6
:100AD400E5E700963B46002240212046FFF74AFF07
:100AE4000346A8B9202284F83920002284F838204B
:100AF40000E00223184602B0BDE8F0810123F9E7C3
:100B04000123F7E70223F5E70323F3E70323F1E7E0
:100B14000323EFE790F83A30DBB2202B20D109B35E
:100B240012B390F83830012B20D081628285C285BF
:100B34000023C363222280F83A2080F83830016809
:100B4400CA6842F48072CA6001684A6942F00102CC
:100B54004A610168CA6842F02002CA6018467047B8
:100B6400022070470120704701207047022070471F
:100B7400704708B50168CB6823F04003CB6020239D
:100B840080F83930FFF7F4FF002008BD08B590F86D
:100B94003A30DBB2222B45D18368B3F5805F0ED0A7
:100BA400036903BB03685A68836A591C81621A701B
:100BB400C38D013B9BB2C385F3B1002033E0826A4D
:100BC400036943B903685B68C3F308031380836A4A
:100BD40002338362ECE703685B68DBB21380836AE9
:100BE40001338362E4E703685B68826A511C8162B3
:100BF40003F07F031370DBE70268D36823F020035C
:100C0400D3600268D36823F48073D36002685369A5
:100C140023F001035361202380F83A3000F0ACF84C
:100C2400002000E0022008BD7047000010B5044613
:100C340002681368D168526913F00F0005D113F0EC
:100C4400200F02D011F0200F53D1002867D012F0EA
:100C5400010202D111F4907F61D013F0010F06D08C
:100C640011F4807F03D0E06B40F00100E06313F0E7
:100C7400040F04D01AB1E06B40F00200E06313F0FB
:100C8400020F04D01AB1E06B40F00400E06313F0EB
:100C9400080F04D01AB1E26B42F00802E263E26B7F
:100CA400002A48D013F0200F02D011F0200F24D1D5
:100CB40023685B6903F04003E26B12F0080F00D174
:100CC4003BB32046FFF77AFC23685A6912F0400FC1
:100CD4001BD05A6922F040025A61636B8BB11A4AE5
:100CE4001A65606BFFF753FB28B3606B036D98477D
:100CF40021E02046FFF74AFF1DE02046FFF746FFAC
:100D0400D6E72046FFF790FF15E02046FFF78CFF5B
:100D140011E02046FFF788FF0023E3630BE013F0A4
:100D2400800F02D011F0800F06D113F0400F02D0D3
:100D340011F0400F04D110BD2046FFF74DFCFAE737
:100D44002046FFF716FFF6E7510D000808B5806B43
:100D54000023C385C384FFF767FF08BD08B5FFF709
:100D640095FAFFF710FB08BD08B50248FFF75EFFD0
:100D740008BD00BF3800002008B50D4B1B780D2BB3
:100D840006D00C494A78501C48700B498B5408BD56
:100D9400084B01221A7058788218D2B25A70064948
:100DA4000D230B544FF0FF330448FFF743FEEEE7E7
:100DB400340000202C00002078000020380000209F
:100DC40008B50848084B03604FF4E133436000233F
:100DD4008360C360036183610C234361FFF7FBFD00
:100DE40008BD00BF380000200044004010B5FFF7E4
:100DF40033FAFFF7E5FF0B4B1C682046FFF700FAB8
:100E04004FF0FF3382B221460748FFF713FE04E098
:100E1400012206490448FFF77DFE054B1B78012B90
:100E2400F6D1FEE70800002038000020340000203E
:100E34002C00002008B50320FFF73AFA0B4A536A46
:100E440043F4E0235362002211466FF00B00FFF7D6
:100E540041FA002211466FF00A00FFF73BFA002224
:100E640011466FF00900FFF735FA08BD00ED00E008
:100E740030B589B000240194184B1A6C42F4003246
:100E84001A641A6C02F400320192019A02941A6BE9
:100E940042F001021A631B6B03F001030293029BED
:100EA4000423039302230493012305930694072345
:100EB40007930B4D03A92846FFF77CFA08230393F5
:100EC40003A92846FFF776FA2620FFF737FA2246C9
:100ED4000F212620FFF7FEF909B030BD003802408B
:100EE400000002400F49D1F8883043F47003C1F880
:100EF40088300D4B1A6842F001021A600020986095
:100F04001A6822F0847222F480321A60074A5A6006
:100F14001A6822F480221A60D8604FF000638B6054
:100F2400704700BF00ED00E000380240103000249C
:100F3400DFF834D0002103E00C4B5B5843500431FC
:100F44000B480C4B42189A42F6D30B4A02E000239A
:100F540042F8043B094B9A42F9D3FFF7C3FF00F070
:100F640011F8FFF743FF704700000220301000081B
:100F7400000000201000002010000020DC000020F1
:100F8400FEE7000070B50D4E0D4CA41BA410002507
:100F9400A54209D10B4E0C4C00F018F8A41BA41068
:100FA4000025A54205D170BD56F825309847013576
:100FB400EEE756F8253098470135F2E72810000887
:100FC40028100008281000082C100008F8B500BFED
:100FD400F8BC08BC9E467047F8B500BFF8BC08BC16
:040FE4009E4670476E
:100FE80000000000000000000102030406070809D1
:100FF8000000000001020304546865206170706CF1
:1010080069636174696F6E2069732072756E6E69A9
:101018006E6720555341525432200D0A00000000DB
:04102800E9010008D2
:04102C00C5010008F2
:101030000100000010000000001000080024F4006F
:0400000508000F35AB
:00000001FF
